:100000000C9434000C9449000C9449000C94490061
:100010000C9449000C9449000C9449000C9449003C
:100020000C9449000C9449000C9449000C9449002C
:100030000C9449000C9449000C9449000C9449001C
:100040000C9449000C9449000C9449000C9449000C
:100050000C9449000C9449000C9449000C944900FC
:100060000C9449000C94490011241FBECFEFD8E036
:10007000DEBFCDBF11E0A0E0B1E0EEE3F1E002C0F1
:1000800005900D92A030B107D9F70E948E000C9414
:100090009D000C94000028B130E028173907C1F00A
:1000A00025B130E082179307B1F02BB130E0821711
:1000B0009307B1F480E090E010C02FE73AE146E00A
:1000C000215030404040E1F700C00000019605C0DB
:1000D00080E090E002C080E090E0883091056CF311
:1000E000089583E087B91AB881E088B92FE38DE0DD
:1000F00093E0215080409040E1F700C0000018B824
:1001000082E088B92FE38DE093E021508040904059
:10011000E1F700C0000018B817B808950E947100F8
:10012000C0E0D0E006C08BB16C2F90E00E944B0085
:0E0130002196CB30D105BCF3F3CFF894FFCF6E
:00000001FF
